:100000000C9462000C94CD0A0C94A60A0C948A00FD
:100010000C948A000C948A000C94F40A0C948A00C4
:100020000C948A000C948A000C948A000C948A0028
:100030000C948A000C948A000C948A000C948A0018
:100040000C945C0A0C948A000C942A0A0C94040AFE
:100050000C948A000C948A000C948A000C948A00F8
:100060000C940B0B0C948A00000000002400270065
:100070002A0000000000250028002B0000000000DE
:1000800023002600290004040404040404040202DA
:100090000202020203030303030301020408102007
:1000A0004080010204081020010204081020000012
:1000B0000008000201000003040700000000000027
:1000C0000000800E11241FBECFEFD8E0DEBFCDBFF1
:1000D00012E0A0E0B1E0E2EEFCE402C005900D9277
:1000E000AE3AB107D9F724E0AEEAB2E001C01D9202
:1000F000A63BB207E1F710E0C2E6D0E004C02197CA
:10010000FE010E94C823C136D107C9F70E94790FAA
:100110000C946F260C94000090919A039111FCCFDF
:1001200091E090939A03909399032FEF2093980373
:1001300010929703260F2093960390939503909126
:100140009503880F892B80939503809194038130C8
:10015000F9F410929403809195038093BB008091F1
:10016000BC0083FDF8CF85EC8093BC0080919A039E
:100170008130E1F380919703861710F46091970323
:10018000A4E7B3E0E4E5F3E080E0861303C008955C
:1001900085EEEACF9D9191938F5FF7CF843049F040
:1001A00018F4833028F40895883019F0803109F06C
:1001B00081E00895089508950895AF92BF92CF9277
:1001C000DF92EF92FF920F931F93CF93DF936C0117
:1001D0007B018B01040F151FEB015E01AE18BF08F8
:1001E000C017D10759F06991D601ED91FC910190AA
:1001F000F081E02DC6010995892B79F7C501DF91C2
:10020000CF911F910F91FF90EF90DF90CF90BF9013
:10021000AF900895FC01538D448D252F30E0842F3D
:1002200090E0821B930B541710F0CF96089501971E
:100230000895FC01918D828D981761F0A28DAE0F0B
:10024000BF2FB11D5D968C91928D9F5F9F73928F92
:1002500090E008958FEF9FEF0895FC01918D828DBE
:10026000981731F0828DE80FF11D858D90E008958B
:100270008FEF9FEF0895FC01918D228D892F90E0E3
:10028000805C9F4F821B91098F73992708958FE996
:1002900093E00E943B0121E0892B09F420E0822FAA
:1002A000089580E090E0892B29F00E944701811198
:1002B0000C9400000895FC01A48DA80FB92FB11D66
:1002C000A35ABF4F2C91848D90E001968F7399278C
:1002D000848FA689B7892C93A089B1898C9183706A
:1002E00080648C93938D848D981306C00288F38963
:1002F000E02D80818F7D80830895EF92FF920F9390
:100300001F93CF93DF93EC0181E0888F9B8D8C8DC1
:1003100098131AC0E889F989808185FF15C09FB7B5
:10032000F894EE89FF896083E889F9898081837078
:10033000806480839FBF81E090E0DF91CF911F9127
:100340000F91FF90EF900895F62E0B8D10E00F5F48
:100350001F4F0F731127E02E8C8D8E110CC00FB61E
:1003600007FCFACFE889F989808185FFF5CFCE01B6
:100370000E945B01F1CFEB8DEC0FFD2FF11DE35AD5
:10038000FF4FF0829FB7F8940B8FEA89FB89808139
:100390008062CFCFCF93DF93EC01888D8823B9F0B3
:1003A000AA89BB89E889F9898C9185FD03C0808180
:1003B00086FD0DC00FB607FCF7CF8C9185FFF2CFFD
:1003C000808185FFEDCFCE010E945B01E9CFDF91F7
:1003D000CF910895833081F028F4813099F08230F4
:1003E000A9F008958730A9F08830C9F08430B1F4BD
:1003F000809180008F7D03C0809180008F778093F3
:100400008000089584B58F7784BD089584B58F7D6D
:10041000FBCF8091B0008F778093B00008958091DA
:10042000B0008F7DF9CF1F93CF93DF93282F30E05B
:10043000F901E255FF4F8491F901E656FF4FD4913F
:10044000F901EA57FF4FC491CC23A9F0162F81116F
:100450000E94EA01EC2FF0E0EE0FFF1FEE58FF4F75
:10046000A591B4918FB7F894EC91111108C0D09573
:10047000DE23DC938FBFDF91CF911F910895DE2B98
:10048000F8CFCF93DF9390E0FC01E656FF4F249125
:100490008A579F4FFC0184918823D1F090E0880F08
:1004A000991FFC01E859FF4FA591B491FC01EE584A
:1004B000FF4FC591D49161110EC09FB7F8948C91F4
:1004C000E22FE0958E238C932881E223E8839FBF5F
:1004D000DF91CF9108958FB7F894EC91E22BEC93D4
:1004E0008FBFF6CF8E50806480937C0080917A001D
:1004F000806480937A0080917A0086FDFCCF8091A1
:1005000078009091790008953FB7F8948091130393
:1005100090911403A0911503B091160326B5A89BE2
:1005200005C02F3F19F00196A11DB11D3FBFBA2F85
:10053000A92F982F8827BC01CD01620F711D811D45
:10054000911D43E0660F771F881F991F4A95D1F7C9
:1005500008958F929F92AF92BF92CF92DF92EF92C7
:10056000FF926B017C010E9484024B015C01C1146B
:10057000D104E104F104B9F00E94840268197909F8
:100580008A099B09683E73408105910580F321E04B
:10059000C21AD108E108F10888EE880E83E0981E9F
:1005A000A11CB11CE4CFFF90EF90DF90CF90BF90E3
:1005B000AF909F908F9008954115510529F4EAE777
:1005C000F0E080818F7780836A307105B9F0CB01CC
:1005D000880F991F880F991F807267706860682B59
:1005E00088E10FB6F894A895809360000FBE6093E1
:1005F0006000E0E6F0E0808180648083232BD9F402
:1006000083B7817F846083BFF89483B7816083BFA1
:1006100085B7806685BF8F7D85BF7894889583B7C1
:100620008E7F83BF7894452B29F4EAE7F0E0808140
:1006300080688083089583B7817F846083BFF89446
:1006400083B7816083BF7894889583B78E7F83BF9B
:100650007894E9CFCF93CFB7F894809111038111AB
:1006600027C0E0E9F0E08491E4EAF0E09491E82F1B
:10067000F0E0EE0FFF1FE859FF4FA591B491EC9108
:10068000E92321F461E08AE00E94130261E08AE03C
:100690000E9441028CB580618CBD8CB580648CBD9C
:1006A00061E08DE00E94410261E08BE00E94410226
:1006B000809111038F5F80931103CFBFCF91089575
:1006C0000895CF93DF931F92CDB7DEB76983DC0126
:1006D000ED91FC910280F381E02D41E050E0BE01FC
:1006E0006F5F7F4F09950F90DF91CF910895DC01E7
:1006F000ED91FC910190F081E02D099485ED8093BE
:10070000BC008091BC0084FDFCCF10929A03089538
:100710002091EE02260F3327331F21323105ECF4EE
:1007200020919A03FC0190E080E0243069F082E09F
:100730000895A091EE022191AC0142535D4FA40FA8
:10074000B52FB11D2C930196861798F38091EE0278
:10075000680F6093EE0280E0089581E008951092A2
:100760009A0381E0809399031092940361E082E1FF
:100770000E94130261E083E10E941302E9EBF0E0C2
:1007800080818E7F808380818D7F808380E28093D3
:10079000B80085E48093BC000895E09153038091F4
:1007A0005203E81730F4F0E0EC5AFC4F808190E0FF
:1007B00008958FEF9FEF0895909153038091520316
:1007C0002FEF3FEF981748F4E92FF0E0EC5AFC4F79
:1007D000208130E09F5F90935303C9010895809179
:1007E000520390915303891B990B0895CF92DF9286
:1007F000EF92FF920F931F93CF93DF937C01CB0176
:100800008A0120919E03222389F0EB016B01C40E23
:10081000D51ECC15DD0569F06991D701ED91FC91EC
:100820000190F081E02DC7010995F3CF642F0E945C
:100830008803C801DF91CF911F910F91FF90EF9036
:10084000DF90CF900895CF93DF931F92CDB7DEB79F
:10085000698320919E032223F9F020919B0320328B
:1008600058F021E030E0FC013383228390E080E007
:100870000F90DF91CF91089580919C03E82FF0E0D5
:10088000E255FD4F998190838F5F80939C03809305
:100890009B0381E090E0ECCF61E0CE0101960E94E5
:1008A0008803F7CF20919B0381E0213208F044C0F8
:1008B00080919A038111FCCF80919D0392E09093E7
:1008C0009A0391E0909399039FEF9093980310926D
:1008D000970320939603AEEAB2E0E4E7F3E090E0FA
:1008E000291331C01092950390919503880F892B9D
:1008F0008093950380919403813049F5109294037D
:10090000809195038093BB008091BC0083FDF8CF5C
:1009100085EC8093BC0080919A038230E1F3809152
:1009200098038F3FB1F0809198038032A1F08091BD
:100930009803803391F084E010929C0310929B0303
:1009400010929E0308953D9131939F5FC9CF85EE2C
:10095000E0CF80E0F1CF82E0EFCF83E0EDCF90E019
:1009600080E008958EBD00000DB407FEFDCF8EB56A
:100970000895CF93DF93D82FC62F809182048823C8
:1009800029F0813071F1DF91CF9108958091840435
:10099000909185042091830431E030939E0320934D
:1009A0009D0310929C0310929B03DC01ED91FC913E
:1009B0000190F081E02D6D2F099580918404909134
:1009C0008504DC01ED91FC910190F081E02D6C2F0C
:1009D00009958091840490918504DF91CF910C94C6
:1009E000520460E0809186040E9413028D2F8F775D
:1009F0000E94B2048C2F0E94B20461E080918604B0
:100A0000DF91CF910C9413020F931F93CF93DF9339
:100A1000EC01062F142F60E088890E9413029C8548
:100A20008D859CBD8DBD802F0E94B204812F0E94B8
:100A3000B204182F61E088890E941302812FDF9190
:100A4000CF911F910F91089540E00C940405CF922F
:100A5000DF92EF92FF92CF93DF936DE186E494E013
:100A60000E94240590E034E0959587953A95E1F74A
:100A70008A3091050CF042C0FC01EE0FFF1FE80F19
:100A8000F91FEA5DFE4FC080D180E2800E2C000C81
:100A9000FF086EE186E494E00E942405D82F66E208
:100AA00086E494E00E942405C82FD295DF7021E0EF
:100AB00030E040E050E004C0220F331F441F551FB8
:100AC000DA95D2F7C701B6010E945F2068EE73E0A5
:100AD00080E090E00E945F20213131054105510501
:100AE00094F04C2F486066EA86E494E0DF91CF9161
:100AF000FF90EF90DF90CF900C940405CC24CA9423
:100B0000DC2C7601C6CF4C2F477FEDCFCF93DF9300
:100B1000EC01E881F9810084F185E02D0995892BAC
:100B200069F08A8D9B8D01969B8F8A8F60E0CE0144
:100B30000E94240590E0DF91CF9108958FEF9FEF01
:100B4000FACFCF93DF93EC0163E10E94240590E09C
:100B50002A8D3B8D821B930BDF91CF9108950F93CC
:100B60001F93CF93DF93EC01E881F9810084F18535
:100B7000E02D0995892BB1F06DE0CE010E9424058E
:100B8000082F60E0CE010E942405182F402F6DE849
:100B9000CE010E940405812F90E0DF91CF911F913B
:100BA0000F9108958FEF9FEFF8CFAF92BF92CF9242
:100BB000DF92FF920F931F93CF93DF936C015B0142
:100BC000EA0162E20E942405F82E90E09C012C0FBD
:100BD0003D1F2F3F310529F020F0CFEFD0E0C81B9B
:100BE000D90B8501AC0EBD1E0A151B0541F0F8019D
:100BF00041918F0160E8C6010E940405F5CF4C2F9A
:100C00004F0D62EAC6010E940405CE01DF91CF912B
:100C10001F910F91FF90DF90CF90BF90AF900895FC
:100C200080913903811102C080913803089581E0D9
:100C300080935003E9988CED90E0909303018093AA
:100C400002010895AF92BF92CF92DF92EF92FF928E
:100C50000F931F93CF93DF935B016A017901E80142
:100C60000E9472029C01225B33402E34310538F41D
:100C7000F5011082F6011082F70110821CC09C0160
:100C8000205633402135310548F4F5011082F60134
:100C90001082F701108281E088830EC09C012052EF
:100CA00033402F33310598F4F5011082F60110829C
:100CB00081E0F70180831882DF91CF911F910F911E
:100CC000FF90EF90DF90CF90BF90AF9008959C0180
:100CD000205E32402F33310540F4F5011082F601D9
:100CE000108281E0F7018083D7CF9C01205A3240E7
:100CF0002F33310530F4F501108281E0F601808355
:100D0000BBCF9C01205632402F33310530F4F50122
:100D1000108281E0F60180832DC09C012F5132406A
:100D20002034310530F4F501108281E0F601808332
:100D3000C0CF9C012F5D31402F33310530F4F501D8
:100D4000108281E0F6018083CDCF9C01205A314092
:100D50002E33310520F481E0F50180838BCF9C0197
:100D60002F5531402034310540F481E0F501808376
:100D7000F6011082F70110828FCF9C012F51314074
:100D80002F33310530F481E0F5018083F6011082C4
:100D900090CF9C012F5D31092F33310530F481E074
:100DA000F5018083F60110829DCF9C012F593109F6
:100DB0002F33310520F481E0F50180839FCF9C0122
:100DC0002F5531092F33310520F481E0F50180835F
:100DD000A1CF9C01205231092E33310520F481E04E
:100DE000F5018083A3CF4F9708F066CF81E0F5012E
:100DF0008083A8CFFC0101900020E9F73197AF0173
:100E0000481B590BBC018FE993E00C94DD008F92D5
:100E10009F92AF92BF920F931F93CF93DF93CDB763
:100E2000DEB7A1970FB6F894DEBF0FBECDBF19A2F3
:100E3000423008F44AE08E010F5D1F4F842E912C42
:100E4000B12CA12CA50194010E94C820E62FB90164
:100E5000CA01EA30F4F4E05DD801EE938D01232B52
:100E6000242B252B79F790E080E0109719F0CD0125
:100E70000E94FA06A1960FB6F894DEBF0FBECDBF52
:100E8000DF91CF911F910F91BF90AF909F908F9066
:100E90000895E95CE1CF0C94FA06CF93DF93D0E09C
:100EA000C0E0009719F00E94FA06EC018AE791E091
:100EB0000E94FA068C0F9D1FDF91CF9108954F92EB
:100EC0005F926F927F928F929F92AF92BF92CF92DA
:100ED000DF92EF92FF920F931F93CF936B017C01F0
:100EE000742EAC019B010E946722882399F08DE744
:100EF00091E0CF911F910F91FF90EF90DF90CF90F5
:100F0000BF90AF909F908F907F906F905F904F9029
:100F10000C94FA0646015701E894B7F82FEF3FEF1B
:100F20004FE75FE7C501B4010E94672281110DC040
:100F30002FEF3FEF4FE75FE7C501B4010E94251F88
:100F400018161CF481E891E0D4CF2FEF3FEF4FE764
:100F50005FE4C701B6010E94622218161CF485E8FE
:100F600091E0C7CF2FEF3FEF4FE75FECC701B6012E
:100F70000E94251F87FDF3CF20E030E0A901C701C3
:100F8000B6010E94251F10E000E087FF0AC06DE255
:100F90008FE993E00E947D018C01F7FAF094F7F855
:100FA000F094C0E060E070E080E09FE37C1641F0E8
:100FB00020E030E040E251E40E946621CF5FF6CFAE
:100FC000A70196010E94FA202B013C010E94DF211B
:100FD0004B015C014AE00E9407077C01E00EF11E14
:100FE000CC23C1F1C501B4010E942A1F9B01AC01B1
:100FF000C301B2010E94F9204B015C016EE28FE94E
:1010000093E00E947D01E80EF91EC15018F120E026
:1010100030E040E251E4C501B4010E948B1F2B0176
:101020003C010E94DF214B01B12CA12C4AE0C501FB
:10103000B4010E940707E80EF91EC501B4010E9421
:101040002A1F9B01AC01C301B2010E94F9204B0190
:101050005C01DBCFC701CF911F910F91FF90EF9003
:10106000DF90CF90BF90AF909F908F907F906F90C8
:101070005F904F900895CF92DF92EF92FF92CF93BF
:10108000DF936C01990FEE08FF08F7FE19C06DE2BF
:101090008FE993E00E947D01EC0166277727CB0161
:1010A0006C197D098E099F094AE00E9407078C0F81
:1010B0009D1FDF91CF91FF90EF90DF90CF9008952B
:1010C0004AE0C701B601DF91CF91FF90EF90DF902A
:1010D000CF900C940707FF920F931F93CF93DF934A
:1010E000182FF92EC62F042F80918204882349F0EF
:1010F000813009F44BC0DF91CF911F910F91FF9088
:10110000089580918404909185042091830431E0B6
:1011100030939E0320939D0310929C0310929B0397
:10112000DC01ED91FC910190F081E02D0995809119
:101130008404909185040E945204602F809183045E
:101140000E948C001092530380935203C12FDF2D15
:101150008091840490918504DC01ED91FC910084E0
:10116000F185E02D0995892B31F28C2F811B801799
:1011700010F68091840490918504DC01ED91FC913E
:101180000284F385E02D09958993E2CF60E0809198
:1011900086040E9413028C2F0E94B204C12FDF2DFF
:1011A00080E00E94B20489938C2F811B8017C0F3CA
:1011B00061E080918604DF91CF911F910F91FF90A4
:1011C0000C941302CF93C82F80918204882329F0B6
:1011D000813009F443C0C0E052C0809184049091F2
:1011E00085042091830431E030939E0320939D0376
:1011F00010929C0310929B03DC01ED91FC910190F5
:10120000F081E02D6C2F09958091840490918504E4
:101210000E94520461E0809183040E948C0010922D
:10122000530380935203C0E080918404909185041D
:10123000DC01ED91FC910084F185E02D0995892B6D
:10124000F1F08091840490918504DC01ED91FC9192
:101250000284F385E02D0995C82FE6CF60E08091E8
:1012600086040E9413028C2F0E94B20480E00E9428
:10127000B204C82F61E0809186040E9413028C2F73
:10128000CF910895CF93C82F843008F0C0E084EF49
:101290000E94E2088C7F682F6C2B84EFCF910C9416
:1012A000B904CF93DF930E94CE00C82F84EF0E9431
:1012B000E208D82F80E00E94420982EF0E94E208F3
:1012C000887F6C2F682B82EF0E94B9048D2F83706A
:1012D000DF91CF910C944209CF93DF930E94CE000F
:1012E000C82F84EF0E94E208D82F80E00E944209B4
:1012F00084EF0E94E20894E0C99FB0011124837E2C
:10130000682B84EF0E94B9048D2F8370DF91CF91F9
:101310000C944209CF93DF930E94CE00C82F84EF34
:101320000E94E208D82F80E00E94420984EF0E94C8
:10133000E20890E2C99FB00111248F71682B84EFFD
:101340000E94B9048D2F8370DF91CF910C944209D4
:10135000CF93C82F883008F0C0E085EF0E94E208E4
:1013600090E2C99FB00111248F71682B85EFCF9156
:101370000C94B904CF93C82F883008F0C0E085EFF3
:101380000E94E20894E0C99FB0011124837E682B7B
:1013900085EFCF910C94B90444E86DEC86E494E0B9
:1013A0000E9404054BE26BE886E494E00E94040589
:1013B0004FE869E886E494E00C940405CF92DF924C
:1013C000EF92FF926B017C01C114D104E104F1049E
:1013D00041F00E94CD1EA70196010E945F206B0183
:1013E0007C01C701B601FF90EF90DF90CF90089588
:1013F000611571058105910511F00C941C1F08956C
:101400000C9451200C9449201F920F920FB60F920A
:1014100011242F933F934F935F936F937F938F93F9
:101420009F93AF93BF93EF93FF938FE993E00E9455
:101430005B01FF91EF91BF91AF919F918F917F9150
:101440006F915F914F913F912F910F900FBE0F9031
:101450001F9018951F920F920FB60F9211242F9381
:101460008F939F93EF93FF93E091AF03F091B003BD
:101470008081E091B503F091B60382FD1BC090819D
:101480008091B8038F5F8F732091B903821741F069
:10149000E091B803F0E0E156FC4F958F8093B803DC
:1014A000FF91EF919F918F912F910F900FBE0F9011
:1014B0001F9018958081F4CF1F920F920FB60F9254
:1014C00011242F933F938F939F93AF93BF9380915A
:1014D0001B0390911C03A0911D03B0911E0330913A
:1014E000120326E0230F2D3758F50296A11DB11DDA
:1014F0002093120380931B0390931C03A0931D035E
:10150000B0931E038091130390911403A0911503CF
:10151000B09116030196A11DB11D80931303909302
:101520001403A0931503B0931603BF91AF919F913D
:101530008F913F912F910F900FBE0F901F90189594
:1015400029E8230F0396A11DB11DD2CF1F920F9240
:101550000FB60F9211242F933F934F935F936F9386
:101560007F938F939F93AF93BF93EF93FF93E091FC
:101570000201F09103010995FF91EF91BF91AF91A5
:101580009F918F917F916F915F914F913F912F919B
:101590000F900FBE0F901F9018951F920F920FB6CD
:1015A0000F9211242F933F934F935F936F937F93E9
:1015B0008F939F93AF93BF93EF93FF93E0910001BD
:1015C000F09101010995FF91EF91BF91AF919F912A
:1015D0008F917F916F915F914F913F912F910F90DC
:1015E0000FBE0F901F9018951F920F920FB60F927B
:1015F00011248F930FB6F894A895809160008861AC
:1016000080936000109260000FBE8F910F900FBE0C
:101610000F901F9018951F920F920FB60F921124E2
:101620002F933F934F935F936F937F938F939F93EA
:10163000AF93BF93EF93FF938091B900887F80367B
:1016400009F44AC0F0F5883209F4A7C018F58031D2
:1016500009F49BC0B8F4882309F4F9C0883009F470
:1016600094C0FF91EF91BF91AF919F918F917F9126
:101670006F915F914F913F912F910F900FBE0F90FF
:101680001F901895883109F488C0803251F78093F3
:10169000980314C0803409F49DC040F48033B9F33A
:1016A0008833F9F68093980385ECB0C0803509F44F
:1016B00085C0883509F496C0883499F60E947E0367
:1016C000D0CF883909F48CC038F5883729F050F428
:1016D000883611F0803729F683E080939A031092C0
:1016E000100357C0883809F47BC0803919F080385E
:1016F00009F0B7CF80911003803208F071C0E091FB
:10170000100381E08E0F809310038091BB00F0E006
:10171000E051FD4F80833DC0803B39F0E0F4803ADA
:1017200009F479C0883A09F09CCF84E080939A0349
:101730001092EF021092EE02E0911703F09118035D
:1017400009958091EE0281110FC081E08093EE0235
:101750001092CE0209C0803C09F4A6CF883C09F45F
:10176000A3CF883B09F07DCFE091EF0281E08E0F9F
:101770008093EF02F0E0E253FD4F80818093BB0045
:101780009091EF028091EE0229C0809195038093A1
:10179000BB0085EC8093BC0064CF9091970380914F
:1017A0009603981758F5E091970381E08E0F809388
:1017B0009703F0E0EC58FC4F8081E9CFE09197036C
:1017C00081E08E0F809397038091BB00F0E0EC588E
:1017D000FC4F808390919703809196039817C8F2ED
:1017E00085E8D8CFE091970381E08E0F809397032F
:1017F0008091BB00F0E0EC58FC4F8083809199030E
:1018000081115CCF81E08093940384EA8093BC00D3
:1018100010929A0326CF85EC8093BC0010929A0315
:1018200080911003803230F4E0911003F0E0E05139
:10183000FD4F10826091100370E0E0911903F09168
:101840001A0380EF92E00995109210030ACF1092CC
:10185000980334CF4EE003C04CE001C04AE02F9221
:101860003F924F925F926F927F928F929F92AF9230
:10187000BF92CF92DF92EF92FF920F931F93CF937D
:10188000DF938F939F93DB01FC01842FE894819079
:101890009190A190B190C190D190E190F19001917F
:1018A00011912191319141915191619171919BE1FE
:1018B000FCE10D9080240D9090240D90A0240D90BB
:1018C000B0240D90C0240D90D0240D90E0240D90F4
:1018D000F0240D9000250D9010250D9020250D90E1
:1018E00030250D9040250D9050250D9060250D90D0
:1018F00070252EF5FF91EF9181929192A192B19274
:10190000C192D192E192F19201931193219331937B
:101910004193519361937193DF91CF911F910F91F7
:10192000FF90EF90DF90CF90BF90AF909F908F90FF
:101930007F906F905F904F903F902F9008958A9581
:1019400009F46894E82D8490EC2DC490E02F049164
:10195000E42F4491E92D2490ED2D9490E12FD49023
:10196000E52F1491522DEA2D2490EE2D3490E22F84
:10197000A490E62FE490222D632DEB2D2490E72FE9
:10198000B490E32F7491EF2D3491F22C0EF491CF9B
:101990000A2C0B24402C282C89240824880C08F4B9
:1019A000892680248224392C3A24330C08F43926E1
:1019B00030249324440C08F449264024A4242B24E6
:1019C000220C08F429262024B2240E2C0F24402CAB
:1019D0002C2CCD240C24CC0C08F4C926C024C22401
:1019E0003D2C3E24330C08F439263024D324440CF7
:1019F00008F449264024E4242F24220C08F4292644
:101A00002024F224022E0326402C202E012700261B
:101A1000000F08F4092700250225312E3226330C49
:101A200008F4392630241325440C08F449264024B0
:101A300024252326220C08F4292620243225062ECC
:101A40000726402C242E45270426440F08F4492756
:101A500040254225352E3626330C08F4392630240D
:101A60005325440C08F44926402464252726220CDB
:101A700008F42926202472251CCFAB0171E060E018
:101A800007C0AB0170E060EC03C0AB01772760E8F2
:101A9000EF92FF920F931F93CF93DF93FA01EA0126
:101AA000DC017695679566956695262F0D900192D7
:101AB0002A95E1F76695669563FB362F762F795F59
:101AC000770F770FDF011497262FE0E0FCE17F010D
:101AD00011E04D915D918D919D913217B1F05EF5C0
:101AE000022F0770043039F5F701E40FF11D44911E
:101AF000F701E50FF11D5491F701E80FF11D8491F5
:101B0000F701E90FF11D949116C0360FF701E40FAC
:101B1000F11D0491F701E50FF11D4491F701E80F64
:101B2000F11D5491F701E90FF11D8491902F412788
:101B3000110F08F41BE1FD010990042601920990A0
:101B40000526019209900826019209900926019222
:101B50002395271709F0BDCFE894DF91CF911F910E
:101B60000F91FF90EF90089500000000000000002A
:101B70000000000000000000000000000000000065
:101B80000000000000000000000000000000000055
:101B90000000000000000000000000000000000045
:101BA0000000000000000000000000000000000035
:101BB0000000000000000000000000000000000025
:101BC0000000000000000000000000000000000015
:101BD0000000000000000000000000000000000005
:101BE00000000000000000000000000000000000F5
:101BF00000000000000000000000000000000000E5
:101C0000637C777BF26B6FC53001672BFED7AB76B9
:101C1000CA82C97DFA5947F0ADD4A2AF9CA472C064
:101C2000B7FD9326363FF7CC34A5E5F171D83115D1
:101C300004C723C31896059A071280E2EB27B275F2
:101C400009832C1A1B6E5AA0523BD6B329E32F846A
:101C500053D100ED20FCB15B6ACBBE394A4C58CF62
:101C6000D0EFAAFB434D338545F9027F503C9FA836
:101C700051A3408F929D38F5BCB6DA2110FFF3D204
:101C8000CD0C13EC5F974417C4A77E3D645D1973B8
:101C900060814FDC222A908846EEB814DE5E0BDBB2
:101CA000E0323A0A4906245CC2D3AC629195E479E9
:101CB000E7C8376D8DD54EA96C56F4EA657AAE0843
:101CC000BA78252E1CA6B4C6E8DD741F4BBD8B8ADE
:101CD000703EB5664803F60E613557B986C11D9E44
:101CE000E1F8981169D98E949B1E87E9CE5528DFBB
:101CF0008CA1890DBFE6426841992D0FB054BB16E7
:101D00001092A2031092A10388EE93E0A0E0B0E04D
:101D10008093A3039093A403A093A503B093A60379
:101D200088E491E09093A00380939F0385EC90E07A
:101D30009093AC038093AB0384EC90E09093AE035C
:101D40008093AD0380EC90E09093B0038093AF0359
:101D500081EC90E09093B2038093B10382EC90E029
:101D60009093B4038093B30386EC90E09093B60312
:101D70008093B5031092B8031092B9031092BA037E
:101D80001092BB03ACE3B4E090E080E021E2E1E03C
:101D9000F0E08630910510F4F0E0E0E0AC01425F45
:101DA0005F4FE40FF51F20935700E491ED930196E8
:101DB0008930910561F710924904109248042AE590
:101DC00031E0309347042093460420E520935204E9
:101DD00021E02093530445E454E05093550440938C
:101DE00054044AE050E050935704409356049093B3
:101DF00059048093580482E090E090935B048093B0
:101E00005A0410925C0410925D0410925E041092C9
:101E10005F041092610410926004109263041092A7
:101E20006204109265041092640410926704109288
:101E3000660410924A0410924B0410924C041092C3
:101E40004D0488E694E010926B0410926A0448EE08
:101E500053E060E070E040936C0450936D04609335
:101E60006E0470936F044CE651E050936904409304
:101E7000680440E856EE65EC77E44093B204509372
:101E8000B3046093B4047093B5041092820437E7EE
:101E90003093830490938504809384043AE03093D4
:101EA000860433E0309387041092880410928904EA
:101EB00020938A0420938B0420938C0425E42093A0
:101EC00075044AE959E969E97FE340937604509340
:101ED0007704609378047093790410927B041092D5
:101EE0007A0423E22093740490937D0480937C040D
:101EF0000895CF93DF93CDB7DEB7CC5CD1090FB691
:101F0000F894DEBF0FBECDBF789484B5826084BDE7
:101F100084B5816084BD85B5826085BD85B58160ED
:101F200085BD80916E00816080936E00109281006B
:101F30008091810082608093810080918100816026
:101F400080938100809180008160809380008091E7
:101F5000B10084608093B1008091B0008160809373
:101F6000B00080917A00846080937A0080917A003A
:101F7000826080937A0080917A008E7F80937A00CD
:101F800080917A00806880937A001092C1000CE3FF
:101F900014E0BAE0CB2ED12CE12CF12C67EE73E0EB
:101FA00080E090E00E94DE09D8012D918D0130E0A3
:101FB00050E040E02F5F3F4F4F4F5F4F6F5F7F4FCD
:101FC0008F4F9F4F0E946C22A70196010E945F20B5
:101FD000CA01B9010E94F809B4E005341B07F1F603
:101FE00060E08FE00E94410260E080E10E944102D7
:101FF00060E081E10E9441028FE00E94720280E174
:102000000E94720281E10E9472020AE010E064E123
:1020100070E080E090E00E94DE09665F7F4F8F4FA6
:102020009F4F0E94A90267EE73E080E090E00E945B
:10203000DE092B013C018FE00E9472021C0167EE59
:1020400073E080E090E00E94DE094B015C0180E1DA
:102050000E947202C754DF4F99838883C95BD040C6
:1020600067EE73E080E090E00E94DE096B017C0186
:1020700081E10E947202FC012FEF421A520A620AA9
:10208000720A249C9001259C300D349C300D112443
:10209000032E000C440B550B2F5F3F4F4F4F5F4FEC
:1020A0008FEF881A980AA80AB80AC754DF4FA88188
:1020B000B981C95BD040A89DB001A99D700DB89DA4
:1020C000700D1124072E000C880B990B6F5F7F4F4A
:1020D0008F4F9F4F0E946C229B01AC01BFEFCB1A28
:1020E000DB0AEB0AFB0AEC9DC001ED9D900DFC9D07
:1020F000900D1124092E000CAA0BBB0BBC01CD01C5
:102100006F5F7F4F8F4F9F4F0E946C2228EE33E00E
:1021100040E050E00E945F2069017A01CA01B901E4
:102120000E94F8090150110909F071CFC701B601E9
:102130000E94F80960E083E00E94410261E086E0CD
:102140000E94410261E086E00E9413028AE090E072
:10215000909357048093560485E090E0909359043F
:102160008093580482E090E090935B0480935A043B
:102170006EE186E494E00E942405482F44606EE9F5
:1021800086E494E00E94040561E0809156040E9478
:10219000410261E0809156040E941302809158042C
:1021A000909159048F3F9807C9F061E00E94410265
:1021B00060E0809158040E9413026AE070E080E0C1
:1021C00090E00E94A90261E0809158040E941302ED
:1021D0006AE070E080E090E00E94A9020E942A0379
:1021E00062E486E494E00E942405823139F061E0E3
:1021F00070E080E090E00E94A902C6CF40E861E86C
:1022000086E494E00E94040580EC9AECA9E8B6E329
:1022100080935C0490935D04A0935E04B0935F048C
:1022200044EE66E886E494E00E94040540EC67E82A
:1022300086E494E00E94040540E068E886E494E0C7
:102240000E94040540E06EE886E494E00E940405E4
:1022500040E06FE886E494E00E9404056CE086E4C8
:1022600094E00E942405482F43606CE886E494E0E3
:102270000E94040544E066EA86E494E00E940405B6
:102280000E94CC0941E861E886E494E00E940405DC
:1022900043EC61EB86E494E00E9404054AE067EBBE
:1022A00086E494E00E9404056EE186E494E00E94D6
:1022B00024058F70482F40676EE986E494E00E9401
:1022C00004050E9427056DE186E494E00E94240540
:1022D0008F70482F40686DE986E494E00E94040501
:1022E0000E9427050E94CC094AEA69EB86E494E043
:1022F0000E9404056AE070E080E090E00E94A9027C
:1023000064E170E080E090E00E94A90260E084E176
:102310000E94410260E085E10E9441028E010F5F50
:102320001F4F180167E370E080E090E00E94DE0933
:102330006B5F7F4F8F4F9F4F0E94A9020BE313E00B
:102340002DE433E04EE453E06FE473E084E10E9457
:10235000220608E313E029E333E04AE353E06CE3A9
:1023600073E085E10E942206E1EBF0E08491EDE963
:10237000F0E01491E9E8F0E00491002311F40C94EA
:10238000AB1B81110E94EA01E02FF0E0EE0FFF1F6E
:10239000E458FF4FA591B4918C91182311F40C943B
:1023A000AB1BF1E0F0932B0380912B03882311F4F6
:1023B0000C94AF1BE9988CED90E09093030180930F
:1023C00002018EE00E94720225EA289FB001299F37
:1023D000700D112477FF02C061507E4F672F770F79
:1023E000770B6595072E000C880B990B0E942C1F0C
:1023F0006093230370932403809325039093260313
:102400000E941006882331F06AE070E080E090E0DE
:102410000E94A90286E78093830488E694E0909363
:102420008504809384041092820462E070E080E06E
:1024300090E00E94A90280918204882311F40C94F8
:10244000C31B813011F40C94DF1B80ED0E94E20865
:10245000803609F03DC189E80E94E208182F88E81B
:102460000E94E208212F30E0322F2227820F932F83
:10247000911D90938E0480938D048BE80E94E20856
:10248000182F8AE80E94E208212F30E0322F2227FD
:10249000820F932F911D9093900480938F048DE869
:1024A0000E94E208182F8CE80E94E208212F30E0F9
:1024B000322F2227820F932F911D909392048093A5
:1024C00091048FE80E94E208182F8EE80E94E2082B
:1024D000212F30E0322F2227820F932F911D9093CE
:1024E00094048093930481E90E94E208182F80E904
:1024F0000E94E208212F30E0322F2227820F932FF3
:10250000911D909396048093950483E90E94E208BC
:10251000182F82E90E94E208212F30E0322F222773
:10252000820F932F911D909398048093970485E9CF
:102530000E94E208182F84E90E94E208212F30E06F
:10254000322F2227820F932F911D90939A0480930C
:10255000990487E90E94E208182F86E90E94E208A0
:10256000212F30E0322F2227820F932F911D90933D
:102570009C0480939B0489E90E94E208182F88E953
:102580000E94E208212F30E0322F2227820F932F62
:10259000911D90939E0480939D048BE90E94E20814
:1025A000182F8AE90E94E208212F30E0322F2227DB
:1025B000820F932F911D9093A00480939F048DE927
:1025C0000E94E208182F8CE90E94E208212F30E0D7
:1025D000322F2227820F932F911D9093A204809374
:1025E000A1048FE90E94E208182F8EE90E94E208F8
:1025F000212F30E0322F2227820F932F911D9093AD
:10260000A4048093A30481EA0E94E2088093A504B5
:1026100082EE0E94E208182F81EE0E94E208212F2C
:1026200030E0322F2227820F932F911D9093A70421
:102630008093A60483EE0E94E2088093A80484EEAF
:102640000E94E208182F85EE0E94E20800E1109F28
:10265000900111248F70820F932F911D9093AA04E3
:102660008093A90486EE0E94E208182F85EE0E944E
:10267000E20840E1149F9001112490E054E0959508
:1026800087955A95E1F7820F931F9093AC0480933E
:10269000AB0487EE0E94E2088093AD048091880429
:1026A0000E94A809809189040E94BA0980918B0434
:1026B0000E946C0980918C040E94510980918A04C7
:1026C0000E948A0983E00E94420980ED0E94E2088C
:1026D00080E00E94BA0987E00E94A80981E00E9478
:1026E0008A0981E00E946C0981E00E94510983E01F
:1026F0000E94420962E070E080E090E00E94A9023E
:1027000043E06AEFC1010E946B08898190E0B0E06C
:10271000A0E01CE0880F991FAA1FBB1F1A95D1F7D4
:102720004A8150E070E060E004E0440F551F661FEE
:10273000771F0A95D1F7842B952BA62BB72B2B81CE
:1027400022952F70822B40918D0450918E0470E061
:1027500060E06C017D0124E0F594E794D794C79480
:102760002A95D1F7C41AD50AE60AF70A33E0B595D7
:10277000A795979587953A95D1F7440F551F661FF2
:10278000771F4C015D01841A950AA60AB70AA501B4
:102790009401A0918F04B09190040E9489204B0174
:1027A0005C01FBE0B594A79497948794FA95D1F7D0
:1027B000A7019601C701B6010E946C229B01AC01E2
:1027C000ACE05595479537952795AA95D1F7A091F7
:1027D0009104B09192040E9489209B01AC01BEE05B
:1027E0005595479537952795BA95D1F7280D391DF9
:1027F0004A1D5B1D2093AE043093AF044093B00498
:102800005093B104A5E0B0E00E947E2060587F4F55
:102810008F4F9F4F672F782F892F992787FD9A9584
:102820000E942C1F20E030E048EC52E40E94662118
:10283000609334037093350380933603909337038A
:1028400043E067EFC1010E946B088091AE04909154
:10285000AF04A091B004B091B1046C017D01FF0CF4
:10286000CC08DC2C76019C01AD016C2D7C2D8C2DCF
:102870009C2D345F41405109610971098109910919
:10288000C754DF4F2883C95BD040C354DF4F388320
:10289000CD5BD040C254DF4F4883CE5BD040552E35
:1028A0003B014C015901C42ED52E7B018C010E94A5
:1028B0007C22CD53DF4F2883C35CD040CC53DF4F05
:1028C0003883C45CD040CB53DF4F4883C55CD040D5
:1028D000CA53DF4F5883C65CD040C953DF4F68836B
:1028E000C75CD040C853DF4F7883C85CD040C75323
:1028F000DF4F8883C95CD040C653DF4F9883CA5CE2
:10290000D0403091960420919504932F990F990B04
:10291000492F592F692F792F892F0E947C220CE093
:102920000E947423CF54DF4F2883C15BD040C15431
:10293000DF4F3883CF5BD040442EC054DF4F5883E5
:10294000C05CD040CF53DF4F6883C15CD040CE53D2
:10295000DF4F7883C25CD040C554DF4F8883CB5BA8
:10296000D040C454DF4F9883CC5BD0403091980462
:1029700020919704932F990F990BCD53DF4FA88087
:10298000C35CD040CC53DF4FB880C45CD040CB5345
:10299000DF4FC880C55CD040CA53DF4FD880C65CCB
:1029A000D040C953DF4FE880C75CD040C853DF4FE9
:1029B000F880C85CD040C753DF4F0881C95CD04065
:1029C000C653DF4F1881CA5CD040492F592F692F59
:1029D000792F892F0E947C2208E00E948D23CF54FA
:1029E000DF4FA880C15BD040C154DF4FB880CF5BC0
:1029F000D040C42CC054DF4FD880C05CD040CF53EF
:102A0000DF4FE880C15CD040CE53DF4FF880C25C1E
:102A1000D040C554DF4F0881CB5BD040C454DF4F5A
:102A20001881CC5BD0400E94AA2370588F4F9F4FD3
:102A3000E0919304F09194045F01D12CC12CE12C1E
:102A4000F12C8701CF54DF4FE883C15BD040CE54D7
:102A5000DF4FB882C25BD040CD54DF4FC882C35B2A
:102A6000D040CC54DF4FD882C45BD040CB54DF4F32
:102A7000E882C55BD040CA54DF4FF882C65BD040C5
:102A8000C954DF4F0883C75BD040C854DF4F188359
:102A9000C85BD040C12CD12CE12CF12C00E010E01F
:102AA0000E947C2201E20E948D23CF54DF4F2883B5
:102AB000C15BD040C154DF4F3883CF5BD040C0549E
:102AC000DF4F4883C05CD040CF53DF4F5883C15C99
:102AD000D040CE53DF4F6883C25CD040C554DF4F37
:102AE0007883CB5BD040C454DF4F8883CC5BD0402D
:102AF000492EA0E00E94BC2309F47CC630919E04BC
:102B000020919D04932F990F990BCD53DF4FA880EF
:102B1000C35CD040CC53DF4FB880C45CD040CB53B3
:102B2000DF4FC880C55CD040CA53DF4FD880C65C39
:102B3000D040C953DF4FE880C75CD040C853DF4F57
:102B4000F880C85CD040C753DF4F0881C95CD040D3
:102B5000C653DF4F1881CA5CD040492F592F692FC7
:102B6000792F892F0E947C22CD53DF4F2883C35CAD
:102B7000D040CC53DF4F3883C45CD040CB53DF4FC1
:102B80004883C55CD040CA53DF4F5883C65CD040F1
:102B9000C953DF4F6883C75CD040C853DF4F788389
:102BA000C85CD040C753DF4F8883C95CD040C65350
:102BB000DF4F9883CA5CD04030919C0420919B04E5
:102BC000932F990F990BC754DF4FA880C95BD04052
:102BD000C354DF4FB880CD5BD040C254DF4FC880B4
:102BE000CE5BD040D52C73018401492F592F692F1A
:102BF000792F892F0E947C2201E10E947423CD53FA
:102C0000DF4FA880C35CD040CC53DF4FB880C45C9A
:102C1000D040CB53DF4FC880C55CD040CA53DF4F94
:102C2000D880C65CD040C953DF4FE880C75CD04035
:102C3000C853DF4FF880C85CD040C753DF4F0881CE
:102C4000C95CD040C653DF4F1881CA5CD0400E9497
:102C5000AA2359016A017B01182F592E8A8190E01D
:102C6000B0E0A0E004E0880F991FAA1FBB1F0A95DF
:102C7000D1F72B8122952F70822B498150E070E093
:102C800060E02CE0440F551F661F771F2A95D1F78F
:102C9000842B952BA62BB72B20E030E040E150E0B1
:102CA000281B390B4A0B5B0BDA01C90139014A01B8
:102CB000990C6608762C43019C01AD01662D762D9A
:102CC000862D962D0FE10E94742339014A01B62FFB
:102CD000A72FF82FE92F30919A0420919904932F70
:102CE000990F990B492F592F692F792F892F03E2BB
:102CF0000E947423012F152D0E94AA2359016A01F5
:102D00007B018C019301A4016B2F7A2F8F2F9E2FB3
:102D10000E94B323E5E3AE2EFCE0BF2EC12CD12CE4
:102D2000E12CF12C00E010E00E947C22CF54DF4F18
:102D3000A880C15BD040C154DF4FB880CF5BD0408A
:102D4000C054DF4FC880C05CD040CF53DF4FD88025
:102D5000C15CD040CE53DF4FE880C25CD040C55448
:102D6000DF4FF880CB5BD040C454DF4F0881CC5B91
:102D7000D040142D0E94D622C754DF4F2883C95B50
:102D8000D040C354DF4F3883CD5BD040C254DF4FB7
:102D90004883CE5BD040CF54DF4F5883C15BD040D7
:102DA000C154DF4F6883CF5BD040C054DF4F78837E
:102DB000C05CD040CF53DF4F8883C15CD040CE533E
:102DC000DF4F9883C25CD0400DE00E948D23C55434
:102DD000DF4F2883CB5BD040432E542E652E762EBA
:102DE000872E982EC454DF4F9883CC5BD04030910F
:102DF000A4042091A304932F990F990BC554DF4F7E
:102E0000A880CB5BD040B42CC52CD62CE72CF82C5A
:102E1000092DC454DF4F1881CC5BD040492F592F66
:102E2000692F792F892F0E947C220E947C2209E140
:102E30000E948D23C754DF4FA880C95BD040C35484
:102E4000DF4FB880CD5BD040C254DF4FC880CE5B2F
:102E5000D040CF54DF4FD880C15BD040C154DF4F4A
:102E6000E880CF5BD040C054DF4FF880C05CD040DA
:102E7000CF53DF4F0881C15CD040CE53DF4F188164
:102E8000C25CD0400E94AA23C554DF4F2883CB5B8D
:102E9000D040C454DF4F3883CC5BD0402A013B0183
:102EA0004C013091A2042091A104932F990F990B0A
:102EB000492F592F692F792F892F0E947C2203E1F6
:102EC0000E948D2359016A017B018C01C554DF4F9B
:102ED0002881CB5BD040C454DF4F3881CC5BD040DD
:102EE000A201B301C4010E94AA2308E00E948D231D
:102EF00059016A017B01E82F192F3091A00420911C
:102F00009F04932F990F990B492F592F692F792FD0
:102F1000892F04E00E9474230E2F0E94AA230E948E
:102F20000E2220E030E040E85BE30E948B1F6093BC
:102F3000300370933103809332039093330342E064
:102F40006DEFC1010E946B084090AE045090AF0439
:102F50006090B0047090B1043CE2531A31E0630A0F
:102F60007108C980DA80DC24CD24DC24F12CE12C2A
:102F70000EE0CC0CDD1CEE1CFF1C0A95D1F78091F5
:102F8000A9049091AA04092E000CAA0BBB0B24E102
:102F9000880F991FAA1FBB1F2A95D1F7C81AD90AF3
:102FA000EA0AFB0AA091AB04B091AC04A301920120
:102FB0000E948920C61AD70AE80AF90A40E4D40E0A
:102FC000E11CF11C3FE0F594E794D794C7943A953F
:102FD000D1F7A091A804B0E0A30192010E947E2045
:102FE0004B015C014BE0B594A794979487944A9564
:102FF000D1F750E8950EA11CB11CA091AD040A2E8A
:10300000000CBB0BA3010E9489205AE0959587957F
:10301000779567955A95D1F7A50194010E946C2286
:103020009B01AC016AE055954795379527956A95C0
:10303000D1F7405E5F4FA091A604B091A7040E9413
:103040008920705E8F4F9F4FEEE09595879577951D
:103050006795EA95D1F7A70196010E946C226B0152
:103060007C01FFE09595879577956795FA95D1F75F
:103070009B01AC010E946C229B01AC01A7E055951D
:10308000479537952795AA95D1F7A091A504B0E06B
:103090000E947E20B4E09595879577956795BA95BF
:1030A000D1F7C61AD70AE80AF90AF7FE03C0C12CFD
:1030B000D12C7601C701B601613071058105A9E106
:1030C0009A0724F060E070E080E099E1BCE095951B
:1030D000879577956795BA95D1F70E942C1F20E0C8
:1030E00030E040E85AE30E948B1F60932C037093FA
:1030F0002D0380932E0390932F031092530310926D
:10310000520310929C0310929B030E94AF03EAEDBE
:10311000F0E0F0931803E09317031BED812E10E00D
:10312000912E90921A03809219036AE070E080E079
:1031300090E00E94A90223E22093740480917C0411
:1031400090917D049924939490929E0320939D03E3
:10315000DC01ED91FC910190F081E02D60E1099599
:1031600080917C0490917D040E945204182F6AE0A3
:1031700070E080E090E00E94A90211113FC3E0E1FD
:10318000F0E0F0937B04E0937A042FB7F8948091F9
:103190001B0390911C03A0911D03B0911E032FBF30
:1031A00080937E0490937F04A0938004B093810465
:1031B00080917C0490917D042091740490929E03F0
:1031C00020939D0310929C0310929B0362E470E095
:1031D0000E94770380917C0490917D040E945204A8
:1031E000182F80917C0490917D042091740490921A
:1031F0009E0320939D0310929C0310929B0365E60F
:1032000070E00E94770380917C0490917D040E947D
:103210005204182B80917C0490917D0420917404B9
:1032200090929E0320939D0310929C0310929B0307
:1032300060917A0470917B040E94770380917C04F2
:1032400090917D040E945204182B6AE070E080E0A7
:1032500090E00E94A9021111D1C285E48093750407
:103260006CE870E080E090E00E94A90280917A040E
:1032700090917B04C12CD12CE12CF0ECFF2E892BFA
:1032800009F497C062E0809174040E948C0010924F
:10329000530380935203C12CD12CA0E8EA2EAFEB4C
:1032A000FA2E823079F580917C0490917D04DC01C6
:1032B000ED91FC910284F385E02D0995C453DF4F15
:1032C0008883CC5CD040C553DF4F1882CB5CD040A4
:1032D00080917C0490917D04DC01ED91FC9102844D
:1032E000F385E02D0995C553DF4F88809980CB5C2D
:1032F000D04088299929BC0190E080E00E942A1FD3
:103300006B017C012FB7F89480911B0390911C03F3
:10331000A0911D03B0911E032FBF80937E04909354
:103320007F04A0938004B093810420E030E040E863
:103330005FEBC701B6010E94251F8823D1F1609180
:1033400075046534A9F070E090E080E00E942A1FC7
:103350009B01AC0160E070E08AE892E40E94662183
:103360009B01AC01C701B6010E948B1F6B017C0160
:1033700080917A0490917B048132910511F04197FC
:1033800051F420E030E040E05FE3C701B6010E9465
:103390008B1F6B017C012091760430917704409162
:1033A000780450917904C701B6010E9466216B012F
:1033B0007C01C0922703D0922803E0922903F09267
:1033C0002A038091BC008A7B8093BC0060E082E18C
:1033D0000E94130260E083E10E94130281E090E00A
:1033E0000E94020A823B29F480913A03882309F45F
:1033F000FCC020E030E040E85FE36091340370916E
:10340000350380913603909137030E94FA2020E023
:1034100030E048EC52E40E948B1F6B017C0167EEA8
:1034200073E080E090E00E94DE096F5F7F4F8F4F76
:103430009F4F0E942C1FA70196010E948B1F0E9484
:10344000DF210E94F80920E030E040E85FE360916E
:1034500030037091310380913203909133030E94C5
:10346000FA2020E030E048EC52E40E948B1F6B0110
:103470007C0167EE73E080E090E00E94DE096F5F00
:103480007F4F8F4F9F4F0E942C1FA70196010E94D4
:103490008B1F0E94DF210E94F80920E030E040E805
:1034A0005FE360912C0370912D0380912E03909126
:1034B0002F030E94FA206B017C0167EE73E080E02D
:1034C00090E00E94DE096F5F7F4F8F4F9F4F0E94F9
:1034D0002C1FA70196010E948B1F0E94DF210E94D2
:1034E000F80920E030E040E85FE360912703709145
:1034F00028038091290390912A030E94FA206B01EE
:103500007C0167EE73E080E090E00E94DE096F5F6F
:103510007F4F8F4F9F4F0E942C1FA70196010E9443
:103520008B1F0E94DF210E94F80920E030E040E874
:103530005FE36091230370912403809125039091B0
:1035400026030E94FA2020E030E048EC52E40E947A
:103550008B1F6B017C0167EE73E080E090E00E94BE
:10356000DE096F5F7F4F8F4F9F4F0E942C1FA70177
:1035700096010E948B1F0E94DF210E94F8096FEFC5
:103580007FEF8FEE90E00E94DE096B017C0100E18D
:10359000E00EF11C62EB81E090E00E94000A6C2DCD
:1035A00090E080E00E94000A9927F7FC9A958F2D01
:1035B0007E2D6D2D82E090E00E94000AB7019927D0
:1035C00077FD9095892F83E090E00E94000A6F2D8F
:1035D00077278827992784E090E00E94000A64E119
:1035E00070E080E090E00E94A90283E090E00E94F9
:1035F000020A8093220381E090E00E94020A182FC1
:103600008093210382E090E00E94020A80932003CD
:1036100090E080E00E94020A80931F0365E070E062
:1036200080E090E00E94A9020E9410068823E1F049
:1036300080913803282F30E0220F331F8091390307
:10364000820F932F911D8230910509F4E0C08330E1
:10365000910509F4DEC0019739F48AEA80932203C8
:103660008093200380931F0320E030E048EC52E475
:103670006091340370913503809136039091370344
:103680000E948B1F0E94D8217093420360934103D4
:1036900020E030E040E251E460913003709131036A
:1036A00080913203909133030E9466210E94DF21B2
:1036B000709344036093430360912C0370912D0336
:1036C00080912E0390912F030E94DF2180912B0384
:1036D000882309F4A0C060686093450360912703C4
:1036E000709128038091290390912A030E94DF2181
:1036F0007093470360934603609123037091240302
:1037000080912503909126030E94DF216093480356
:103710008091220380933D0310933E038091200308
:1037200080933F0380911F038093400311E0109327
:103730004C0365E070E080E090E00E94A902EDE3B8
:10374000F3E02CE433E080E02E173F0709F465C076
:1037500091918927F9CF10922B030C94D411809169
:103760003B03882311F40C94E11187E196E09093D8
:10377000030180930201809169008C60809369004D
:10378000E99A0C94E1111092530310925203109293
:103790009C0310929B030E94AF036AED862E60E0AB
:1037A000962E90921803809217037BEDA72E70E05F
:1037B000B72EB0921A03A09219030C9425120E94FE
:1037C0002A038CB58C7F82608CBD8DB581608DBDE8
:1037D0008CB58F7D8CBD8CB58C608CBD61E080918B
:1037E00086040E94410261E0809186040E941302D7
:1037F0000C94251260E070E0CB0199CB1092270366
:10380000109228031092290310922A03DACD8BEB31
:1038100025CF8CEC23CF6F775FCF80934C038091C3
:103820003C03882309F468C1E091AF03F091B00331
:1038300082E08083E091AB03F091AC031082E091D1
:10384000AD03F091AE0389E180831092B703E0915C
:10385000B303F091B40326E02083E091B103F0912B
:10386000B203808180618083E091B103F091B20363
:10387000808188608083E091B103F091B203808100
:1038800080688083E091B103F091B20380818F7DE5
:10389000808384E991E00E944B0780913E031F9250
:1038A0008F9305EA11E01F930F933F922F920E948E
:1038B000CE23C1010E944D078AEA91E00E944B0786
:1038C00080913D031F928F931F930F933F922F92EE
:1038D0000E94CE23C1010E944B0780913E031F929C
:1038E0008F931F930F933F922F920E94CE23C1017B
:1038F0000E944B0780913F031F928F931F930F935A
:103900003F922F920E94CE23C1010E944B078091CB
:1039100040031F928F931F930F933F922F920E9409
:10392000CE23C1010E944D078BEB91E00E944B0713
:103930004AE061E070E080E090E00E9407078CECD4
:1039400091E00E944B074AE066E070E080E090E082
:103950000E9407078AE791E00E94FA068EEC91E048
:103960000E944B076091410370914203072E000CA7
:10397000880B990B0E942C1F20E030E048EC52E4A9
:103980000E94662142E00E945F078FED91E00E9455
:103990004D07009143031091440383EE91E00E9490
:1039A0004B07B80190E080E00E942A1F20E030E041
:1039B00040E251E40E94662142E00E945F0784EFEA
:1039C00091E00E944D0788EF91E00E944B078091A3
:1039D00045038F7790E00E943B0889E092E00E94C7
:1039E0004D078BE092E00E944B070FB6F894DEBFC4
:1039F0000FBECDBF8091450387FF60C189E891E08C
:103A00000E944D078CE192E00E944B078091460393
:103A1000909147030E943B088DE292E00E944D077F
:103A200082E392E00E944B076091480370E090E0CF
:103A300080E00E942A1F20E030E048E452E40E9427
:103A4000662142E00E945F0783E492E00E944D07F6
:103A500085E492E00E944D0786E592E00E944B07C4
:103A600080914F0390E00E943B0881E692E00E9423
:103A70004B0780914E0390E00E943B088CE692E059
:103A80000E944B0780914D0390E00E943B0887E71E
:103A900092E00E944B0780913B0390E00E943B081C
:103AA0008AE791E00E94FA0682E892E00E944B07C2
:103AB00080913C0390E00E943B088DE892E00E94D8
:103AC0004B0780913A0390E00E943B0888E992E01E
:103AD0000E944B078091390390E00E943B0883EAE3
:103AE00092E00E944B078091380390E00E943B08CF
:103AF0008AE791E00E94FA0661E086E494E00E9481
:103B000024058370833079F162E186E494E00E94B9
:103B1000240583FF06C048E062E986E494E00E9441
:103B2000040541E861E886E494E00E9404051092EF
:103B30006304109262046DE186E494E00E9424051F
:103B4000482F4E7F6DE986E494E00E94040540E032
:103B50006DE886E494E00E94040540E062EA86E4B1
:103B600094E00E940405B10184E091E00E94450DBB
:103B7000B1018DE393E00E942E0C40E150E06DE333
:103B800073E086E494E00E94D50543E861E886E4AA
:103B900094E00E94040562E186E494E00E9424051A
:103BA00083FFF9CF48E062E986E494E00E940405CF
:103BB00040E861E886E494E00E9404056AE070E071
:103BC00080E090E00E94A90280914E03282F30E00F
:103BD000220F331F80914F03820F932F911D20914D
:103BE0004D0354E0259F90011124820F931F0197EC
:103BF0008730910508F065C0880F991FFC01E85EC9
:103C0000FE4FE080F1800E941006882319F0EE2418
:103C1000E394F12C8FE993E00E94CA01E091B10393
:103C2000F091B20380818F7E8083E091B103F091A7
:103C3000B2038081877F8083E091B103F091B2036A
:103C400080818F778083E091B103F091B20380810E
:103C50008F7D80838091B9038093B80361E080E019
:103C60000E94410261E081E00E94410260E080E048
:103C70000E94130260E081E00E9413026AE070E09B
:103C800080E090E00E94A90260E086E00E941302BA
:103C900010E000E00E151F05C4F430E020E050E015
:103CA00040E069E070E081E593E00E94DC028091F1
:103CB000500381110AC00F5F1F4FECCF8EE891E0D7
:103CC0009FCE91E7E92EF12C9ECF1092500361E038
:103CD00086E00E94130265E070E080E090E00E94C0
:103CE000A90280E090E0892B11F40C9492110E94BB
:103CF0004701882311F40C948E110E9400000C944B
:103D00008E118F929F92AF92BF92CF92DF92EF92DD
:103D1000FF92CF93DF93EC01688179818A819B8147
:103D2000611571058105910521F464E279ED8BE55A
:103D300097E02DE133EF41E050E00E945F20490120
:103D40005A019B01AC01A7EAB1E40E947E206B01FD
:103D50007C01ACEEB4EFA50194010E948C20C60E4C
:103D6000D71EE81EF91EF7FE06C081E0C81AD1086A
:103D7000E10880E8F80AC882D982EA82FB82C7019A
:103D8000B6019F77DF91CF91FF90EF90DF90CF90BA
:103D9000BF90AF909F908F9008958F929F92AF9217
:103DA000BF92CF92DF92EF92FF92609114017091D7
:103DB000150180911601909117016115710581051A
:103DC000910521F464E279ED8BE597E02DE133EF85
:103DD00041E050E00E945F2049015A019B01AC0183
:103DE000A7EAB1E40E947E206B017C01ACEEB4EF47
:103DF000A50194010E948C20C60ED71EE81EF91E54
:103E0000F7FE06C081E0C81AD108E10880E8F80A88
:103E1000C0921401D0921501E0921601F0921701A0
:103E2000C701B6019F77FF90EF90DF90CF90BF90D2
:103E3000AF909F908F900895609314017093150137
:103E4000809316019093170108950E94671F08F44C
:103E500081E00895E89409C097FB3EF49095809521
:103E6000709561957F4F8F4F9F4F9923A9F0F92F40
:103E700096E9BB279395F695879577956795B795BE
:103E8000F111F8CFFAF4BB0F11F460FF1BC06F5FA4
:103E90007F4F8F4F9F4F16C0882311F096E911C0B6
:103EA000772321F09EE8872F762F05C0662371F0D7
:103EB00096E8862F70E060E02AF09A95660F771FEB
:103EC000881FDAF7880F9695879597F90895990FC7
:103ED0000008550FAA0BE0E8FEEF16161706E807D4
:103EE000F907C0F012161306E407F50798F0621BF5
:103EF000730B840B950B39F40A2661F0232B242BCA
:103F0000252B21F408950A2609F4A140A6958FEFE8
:103F1000811D811D08950E949E1F0C940F200E94F8
:103F2000012038F00E94082020F0952311F00C9415
:103F3000F81F0C94FE1F11240C9443200E94202093
:103F400070F3959FC1F3950F50E0551F629FF001EC
:103F5000729FBB27F00DB11D639FAA27F00DB11D05
:103F6000AA1F649F6627B00DA11D661F829F22278E
:103F7000B00DA11D621F739FB00DA11D621F839F15
:103F8000A00D611D221F749F3327A00D611D231FEB
:103F9000849F600D211D822F762F6A2F11249F5739
:103FA00050409AF0F1F088234AF0EE0FFF1FBB1F3C
:103FB000661F771F881F91505040A9F79E3F5105FB
:103FC00080F00C94F81F0C9443205F3FE4F3983E7C
:103FD000D4F3869577956795B795F795E7959F5FA5
:103FE000C1F7FE2B880F911D9695879597F9089537
:103FF00097F99F6780E870E060E008959FEF80EC9C
:10400000089500240A94161617061806090608953E
:1040100000240A9412161306140605060895092EA4
:104020000394000C11F4882352F0BB0F40F4BF2B13
:1040300011F460FF04C06F5F7F4F8F4F9F4F089553
:1040400057FD9058440F551F59F05F3F71F0479549
:10405000880F97FB991F61F09F3F79F0879508952E
:10406000121613061406551FF2CF4695F1DF08C04D
:10407000161617061806991FF1CF8695710561056A
:1040800008940895E894BB2766277727CB0197F912
:104090000895F999FECF92BD81BDF89A992780B510
:1040A0000895262FF999FECF1FBA92BD81BD20BD7C
:1040B0000FB6F894FA9AF99A0FBE01960895052E54
:1040C00097FB1EF400940E94762057FD07D00E94B3
:1040D000C82007FC03D04EF40C94762050954095F0
:1040E000309521953F4F4F4F5F4F089590958095A4
:1040F000709561957F4F8F4F9F4F08950E94EA20E2
:10410000A59F900DB49F900DA49F800D911D11242B
:104110000895B7FF0C947E200E947E20821B930B93
:1041200008952F923F924F925F926F927F928F925B
:104130009F92AF92BF92CF92DF92EF92FF920F9336
:104140001F93CF93DF93CDB7DEB7CA1BDB0B0FB640
:10415000F894DEBF0FBECDBF09942A8839884888FD
:104160005F846E847D848C849B84AA84B984C88493
:10417000DF80EE80FD800C811B81AA81B981CE0F8A
:10418000D11D0FB6F894DEBF0FBECDBFED0108956F
:10419000A1E21A2EAA1BBB1BFD010DC0AA1FBB1F4B
:1041A000EE1FFF1FA217B307E407F50720F0A21BBD
:1041B000B30BE40BF50B661F771F881F991F1A942A
:1041C00069F760957095809590959B01AC01BD0154
:1041D000CF010895A29FB001B39FC001A39F700DAE
:1041E000811D1124911DB29F700D811D1124911DFF
:1041F00008955058BB27AA270E9411210C940F2024
:104200000E94012038F00E94082020F039F49F3FDE
:1042100019F426F40C94FE1F0EF4E095E7FB0C94C1
:10422000F81FE92F0E94202058F3BA17620773077E
:104230008407950720F079F4A6F50C9442200EF43B
:10424000E0950B2EBA2FA02D0B01B90190010C01A6
:10425000CA01A0011124FF27591B99F0593F50F4BE
:10426000503E68F11A16F040A22F232F342F442716
:10427000585FF3CF469537952795A795F04053950E
:10428000C9F77EF41F16BA0B620B730B840BBAF0DE
:104290009150A1F0FF0FBB1F661F771F881FC2F749
:1042A0000EC0BA0F621F731F841F48F4879577955D
:1042B0006795B795F7959E3F08F0B0CF9395880F17
:1042C00008F09927EE0F9795879508950E947A2117
:1042D0000C940F200E94082058F00E94012040F00A
:1042E00029F45F3F29F00C94F81F51110C944320DE
:1042F0000C94FE1F0E94202068F39923B1F35523EC
:1043000091F3951B550BBB27AA27621773078407E8
:1043100038F09F5F5F4F220F331F441FAA1FA9F37E
:1043200035D00E2E3AF0E0E832D091505040E6956C
:10433000001CCAF72BD0FE2F29D0660F771F881FCD
:10434000BB1F261737074807AB07B0E809F0BB0BC0
:10435000802DBF01FF2793585F4F3AF09E3F5105D4
:1043600078F00C94F81F0C9443205F3FE4F3983EE0
:10437000D4F3869577956795B795F7959F5FC9F7BD
:10438000880F911D9695879597F90895E1E0660F3E
:10439000771F881FBB1F621773078407BA0720F0B7
:1043A000621B730B840BBA0BEE1F88F7E095089520
:1043B0000E94DF216894B1110C94432008950E945B
:1043C000282088F09F5798F0B92F9927B751B0F05F
:1043D000E1F0660F771F881F991F1AF0BA95C9F789
:1043E00014C0B13091F00E944220B1E008950C94C5
:1043F0004220672F782F8827B85F39F0B93FCCF378
:10440000869577956795B395D9F73EF49095809505
:10441000709561957F4F8F4F9F4F089597FB16F4CE
:104420000E9452220C941522E894F92F96EBFF2358
:1044300081F0121613061406440B9395F695879592
:104440007795679557954040FF23B9F71BC099278B
:104450000895882351F49850D2F7872B762F652F33
:10446000542F432F322F20E0B1F3121613061406F7
:10447000440B88233AF09A95440F551F661F771F07
:10448000881FCAF755234AF4440F551F11F460FFE3
:1044900004C06F5F7F4F8F4F9F4F880F9695879512
:1044A00097F90895909580957095609550954095F1
:1044B000309521953F4F4F4F5F4F6F4F7F4F8F4F3D
:1044C0009F4F08950E94671F08F48FEF08950E9480
:1044D000671F880B990B0895DB018F939F930E94B0
:1044E0007E20BF91AF91A29F800D911DA39F900D43
:1044F000B29F900D11240895DF93CF931F930F93D4
:104500009A9DF02D219FF00D8B9DF00D8A9DE02D41
:10451000F10D039FF00D029FE00DF11D4E9DE00D8A
:10452000F11D5E9DF00D4F9DF00D7F936F93BF9237
:10453000AF925F934F93D5010E94EA208B01AC01AB
:10454000D7010E94EA20EB01E80FF91FD6010E9473
:10455000CB222F913F91D6010E94EA20C60FD71F90
:10456000E81FF91FAF91BF910E94CB222F913F917D
:104570000E94EA20C60FD71FE81FF91FD6010E942C
:10458000EA20E60FF71F9801BE01CF010F911F919E
:10459000CF91DF9108950E94EA20460F571FC81F50
:1045A000D91F08F431960895689401C0E894F92F52
:1045B000F12B12F00C940823A0E0B0E0E2EEF2E25E
:1045C0000C949720092E059422F40E946423112351
:1045D00092F4F0E80F26FFEFE094F0940095109528
:1045E000B094C094D094A194BF0ACF0ADF0AEF0A16
:1045F000FF0A0F0B1F0B0E94132307FC0E9464236A
:10460000CDB7DEB7ECE00C94B320689401C0E89419
:104610008F929F92CF93DF930E941323DF91CF91CC
:104620009F908F90089588249924F401E401B0E4C8
:104630009F93AA279A158B049C04ED05FE05CF05D0
:10464000D007A10798F4AD2FDC2FCF2FFE2FE92D37
:10465000982C892E982F872F762F652F542F432F34
:10466000322F2227B85031F7BF9127C01B2EBF91A0
:10467000BB27220F331F441F551F661F771F881F3C
:10468000991F881C991CEE1FFF1FCC1FDD1FAA1F3E
:10469000BB1F8A149B04EC05FD05CE05DF05A007B2
:1046A000B10748F08A189B08EC09FD09CE09DF091B
:1046B000A00BB10B21601A94E1F62EF49401AF0126
:1046C000BE01CD01000C0895609570958095909580
:1046D00030954095509521953F4F4F4F5F4F6F4F0D
:1046E0007F4F8F4F9F4F0895002E083090F0982FE6
:1046F000872F762F652F542F432F322F22270850D4
:10470000F4CF220F331F441F551F661F771F881FCA
:10471000991F0A95B2F7002D089597FD1094002E69
:10472000083098F00850232F342F452F562F672F2D
:10473000782F892F912DF4CF15949795879577959C
:10474000679557954795379527950A95AAF71124A8
:10475000002D08952A0D3B1D4C1D5D1D6E1D7F1DF6
:10476000801F911F08952A193B094C095D096E09A4
:104770007F09800B910B08950024A7FD00942A1750
:1047800030054005500560057005800590050895C9
:10479000EE0FFF1F0590F491E02D0994AEE0B0E01C
:1047A000E4EDF3E20C949F200D891E8986E08C8352
:1047B0001A8309838FEF9FE79E838D83AE01475E47
:1047C0005F4F6F89788DCE0101960E94F1232F8172
:1047D0003885020F131FF80110822E96E4E00C9426
:1047E000BB20ABE0B0E0E7EFF3E20C9491207C015A
:1047F0003B018A01FC0117821682838181FFC8C1B7
:10480000CE0101965C01F7019381F30193FD85913F
:1048100093FF81913F01882309F453C1853239F414
:1048200093FD859193FF81913F01853229F4B70172
:1048300090E00E94E125E7CF912C212C312CFFE163
:10484000F31538F08B3211F190F4803209F1833294
:1048500029F137FC3CC020ED280F2A3050F536FEF8
:1048600020C08AE0989E200D1124922E06C08D3221
:1048700091F0803371F7689430F8F30193FD8591DE
:1048800093FF81913F018111DACF21C0689431F803
:10489000689432F8F2CF689433F8EFCF689434F824
:1048A000ECCFEAE02E9E200D1124222E689435F8DC
:1048B000E4CF8E3229F436FC04C1689436F8DDCF9B
:1048C0008C3619F4689437F8D8CF8836B1F2982F1F
:1048D0009F7D95549330E0F08336A1F18337C1F189
:1048E000833509F063C02801F2E04F0E511CF80136
:1048F000C080D180692D70E036FC02C06FEF7FEF81
:10490000C6010E94CB254C01689437F882010AC089
:104910000C5F1F4FFFE3F98388248394912C65017A
:10492000E89437F833FE2DC0522C8114910471F5B0
:10493000552009F468CFB70180E290E00E94E1259C
:104940005A94F6CFF801808189830E5F1F4FE4CF20
:104950002801F2E04F0E511CF801C080D180692D72
:1049600070E036FC02C06FEF7FEFC6010E94D625D3
:104970004C018201D5CFB70180E290E00E94E12591
:104980002A942814190409F0B0F7CECFF60137FCA9
:10499000859137FE81916F01B70190E00E94E1257A
:1049A00051105A94F1E08F1A9108BFCF843619F054
:1049B000893609F077C0F80137FE6BC060817181DC
:1049C000828193810C5F1F4FF32DFF763F2E97FF5F
:1049D00009C090958095709561957F4F8F4F9F4F3F
:1049E000689437F82AE030E0A5010E941126C82E0D
:1049F000CA188C2C432C36FE0CC0E89440F8C9141D
:104A000040F434FE05C032FC03C0F32DFE7E4F2E71
:104A1000892C44FE95C0FE01EC0DF11D8081803390
:104A200009F087C0242D297E422E842D8870582EAF
:104A300043FC95C040FE8FC09C2C821418F42C0CB3
:104A4000922C981844FE91C0B70180E390E00E9438
:104A5000E12542FE09C088E790E041FE02C088E5FA
:104A600090E0B7010E94E125C91408F48AC0CA94F5
:104A7000D12C9FEFC91AD90ACA0CDB1CF60182910E
:104A80006F01B70190E00E94E125AC14BD04B1F7BD
:104A90004FCF60817181072E000C880B990B0E5F40
:104AA0001F4F92CFD32CE894D4F82AE030E085371A
:104AB00039F1232D297FD22E8F3601F148F4883524
:104AC000A9F0F701868197812B96E2E10C94AD2045
:104AD000803749F08837A9F7D4FE02C06894D2F82D
:104AE00020E130E00DC06894D4F8F6CF34FE03C066
:104AF000822F8660D82E20E132E002C028E030E02C
:104B0000F801D7FE0FC060817181828193810C5FB3
:104B10001F4FA5010E941126C82ECA183D2CE894EB
:104B200037F867CF6081718190E080E00E5F1F4FA2
:104B3000F0CF42FC02C0839478CF8394839475CFE6
:104B4000842D867809F471CFF6CFB70180E290E02A
:104B50000E94E12583948214C0F3512C73CF522C10
:104B60005818821408F46ECFF8CF842D867809F493
:104B70007BCF8BE241FE80E247FC8DE2B70190E003
:104B800071CFB70180E390E00E94E1259A946CCF49
:104B90008FEF9FEF99CFFC0105906150704001109D
:104BA000D8F7809590958E0F9F1F0895FC01615056
:104BB000704001900110D8F7809590958E0F9F1F3F
:104BC00008950F931F93CF93DF93182F092FEB01B5
:104BD0008B8181FD09C01FEF0FEF812F902FDF9197
:104BE000CF911F910F91089582FF14C02E813F81B4
:104BF0008C819D81281739073CF4E881F981CF0128
:104C000001969983888310838E819F8101969F836B
:104C10008E83E3CFE885F985812F0995892BA1F350
:104C2000DACFFA01AA27283051F1203181F1E89436
:104C30006F936E7F6E5F7F4F8F4F9F4FAF4FB1E08F
:104C40003ED0B4E03CD0670F781F891F9A1FA11D8A
:104C5000680F791F8A1F911DA11D6A0F711D811D8B
:104C6000911DA11D20D009F468943F912AE0269F50
:104C700011243019305D3193DEF6CF010895462FAF
:104C80004770405D4193B3E00FD0C9F7F6CF462F90
:104C90004F70405D4A3318F0495D31FD40524193F9
:104CA00002D0A9F7EACFB4E0A695979587957795B6
:104CB0006795BA95C9F700976105710508959B013D
:104CC000AC010A2E06945795479537952795BA95C6
:104CD000C9F7620F731F841F951FA01D0895F894D4
:024CE000FFCF04
:104CE200DC00DC000301021604050F07E6095A0B7B
:104CF2000C12630F010000000400080017002600D8
:104D02004B00E100C201781E00A02800F03C0040E8
:104D12005100127A00E4A20024F40048E80190D085
:104D22000320A107000000007D01DD000A01CA0185
:104D32003B0119012D01000000006103D505AF04FC
:104D42006003A1058605AF05000000002304F603F9
:104D5200AF046003EF03DC03CD030D0A006E616E46
:104D620000696E66006F7666007472756500666132
:104D72006C73650020204E6F646520466C61673A53
:104D82002020202000253032580020204E6F6465FC
:104D92002049443A202020202020002020566572FD
:104DA20073696F6E3A202020202020002E002020E0
:104DB20054656D70657261747572653A202000CB1E
:104DC2009A4300202050726573737572653A2020F1
:104DD2002020200068506100202048756D696469B8
:104DE20074793A202020202000250020204D6F7663
:104DF200656D656E743A20202020200020204C69C9
:104E02006768743A202020202020202000206C7522
:104E120078002020566F6C746167653A202020204C
:104E22002020007600202044697020537769746343
:104E320068657320200020206469705F31203A2069
:104E42000020206469705F32203A200020206469CB
:104E5200705F33203A200020206469705F34203A6A
:104E6200200020206469705F35203A2000202064F1
:104E720069705F36203A200020206469705F372015
:0E4E82003A200020206469705F38203A20003A
:00000001FF
